:100000000C9462000C948A000C948A000C948A0070
:100010000C948A000C948A000C948A000C948A0038
:100020000C948A000C948A000C948A000C942E0381
:100030000C948A000C948A000C948A000C948A0018
:100040000C94E4020C948A000C94B2020C948C027E
:100050000C948A000C948A000C948A000C948A00F8
:100060000C948A000C948A000000000024002700F1
:100070002A0000000000250028002B0000000008D6
:10008000000201000003040700000000000000005F
:1000900000000000230026002900040404040404D6
:1000A0000404020202020202030303030303010227
:1000B00004081020408001020408102001020408F6
:1000C00010202F0411241FBECFEFD8E0DEBFCDBF1C
:1000D00011E0A0E0B1E0EAE0F3E102C005900D928A
:1000E000AE32B107D9F721E0AEE2B1E001C01D9216
:1000F000AD3FB207E1F710E0C2E6D0E004C02197BF
:10010000FE010E947D09C136D107C9F70E948C0407
:100110000C9483090C940000AF92BF92CF92DF92AF
:10012000EF92FF920F931F93CF93DF936C017B01AC
:100130008B01040F151FEB015E01AE18BF08C0173D
:10014000D10759F06991D601ED91FC910190F081B0
:10015000E02DC6010995892B79F7C501DF91CF9173
:100160001F910F91FF90EF90DF90CF90BF90AF90D5
:100170000895FC01538D448D252F30E0842F90E0AD
:10018000821B930B541710F0CF9608950197089592
:10019000FC01918D828D981761F0A28DAE0FBF2F5B
:1001A000B11D5D968C91928D9F5F9F73928F90E0B1
:1001B00008958FEF9FEF0895FC01918D828D981720
:1001C00031F0828DE80FF11D858D90E008958FEF5D
:1001D0009FEF0895FC01918D228D892F90E0805C26
:1001E0009F4F821B91098F739927089588E391E0AF
:1001F0000E94EA0021E0892B09F420E0822F089573
:1002000080E090E0892B29F00E94F60081110C9487
:1002100000000895FC01A48DA80FB92FB11DA35AA9
:10022000BF4F2C91848D90E001968F739927848F16
:10023000A689B7892C93A089B1898C918370806439
:100240008C93938D848D981306C00288F389E02DDA
:1002500080818F7D80830895EF92FF920F931F938B
:10026000CF93DF93EC0181E0888F9B8D8C8D981369
:100270001AC0E889F989808185FF15C09FB7F89475
:10028000EE89FF896083E889F989808183708064C1
:1002900080839FBF81E090E0DF91CF911F910F910C
:1002A000FF90EF900895F62E0B8D10E00F5F1F4F1B
:1002B0000F731127E02E8C8D8E110CC00FB607FC2A
:1002C000FACFE889F989808185FFF5CFCE010E94B8
:1002D0000A01F1CFEB8DEC0FFD2FF11DE35AFF4F1B
:1002E000F0829FB7F8940B8FEA89FB898081806246
:1002F000CFCFCF93DF93EC01888D8823B9F0AA8903
:10030000BB89E889F9898C9185FD03C0808186FDD0
:100310000DC00FB607FCF7CF8C9185FFF2CF80811F
:1003200085FFEDCFCE010E940A01E9CFDF91CF9189
:10033000089590E0FC01E458FF4F2491FC01E25540
:10034000FF4F3491FC01E656FF4FE491EE23C9F0D4
:10035000222339F0233001F1A8F4213019F12230A1
:1003600029F1F0E0EE0FFF1FEE58FF4FA591B49179
:100370008FB7F894EC91611126C030953E233C93E1
:100380008FBF08952730A9F02830C9F0243049F7ED
:10039000809180008F7D03C0809180008F77809353
:1003A0008000DFCF84B58F7784BDDBCF84B58F7DB0
:1003B000FBCF8091B0008F778093B000D2CF809137
:1003C000B0008F7DF9CF3E2BDACFCF93DF9390E053
:1003D000FC01E255FF4F249186569F4FFC0184910A
:1003E0008823D1F090E0880F991FFC01E859FF4F56
:1003F000A591B491FC01EE58FF4FC591D4916111C4
:100400000EC09FB7F8948C91E22FE0958E238C93C9
:100410002881E223E8839FBFDF91CF9108958FB7B2
:10042000F894EC91E22BEC938FBFF6CF3FB7F894A2
:100430008091340190913501A0913601B09137013E
:1004400026B5A89B05C02F3F19F00196A11DB11D2F
:100450003FBFBA2FA92F982F8827BC01CD01620F6B
:10046000711D811D911D42E0660F771F881F991F26
:100470004A95D1F70895FC0101900020E9F73197E2
:10048000AF01481B590BBC0188E391E00C948C0030
:100490008F929F92AF92BF920F931F93CF93DF9350
:1004A000CDB7DEB7A1970FB6F894DEBF0FBECDBFB4
:1004B00019A2423008F44AE08E010F5D1F4F842ECE
:1004C000912CB12CA12CA50194010E940407E62FC8
:1004D000B901CA01EA30F4F4E05DD801EE938D0170
:1004E000232B242B252B79F790E080E0109719F02F
:1004F000CD010E943B02A1960FB6F894DEBF0FBE5D
:10050000CDBFDF91CF911F910F91BF90AF909F9082
:100510008F900895E95CE1CF1F920F920FB60F9272
:1005200011242F933F934F935F936F937F938F93F8
:100530009F93AF93BF93EF93FF9388E391E00E9463
:100540000A01FF91EF91BF91AF919F918F917F91A0
:100550006F915F914F913F912F910F900FBE0F9030
:100560001F9018951F920F920FB60F9211242F9380
:100570008F939F93EF93FF93E0914801F09149018E
:100580008081E0914E01F0914F0182FD1BC090816E
:10059000809151018F5F8F7320915201821741F03A
:1005A000E0915101F0E0E85CFE4F958F809351019E
:1005B000FF91EF919F918F912F910F900FBE0F9010
:1005C0001F9018958081F4CF1F920F920FB60F9253
:1005D00011242F933F938F939F93AF93BF93809159
:1005E000300190913101A0913201B09133013091ED
:1005F0002F0123E0230F2D3758F50196A11DB11DC2
:1006000020932F018093300190933101A093320108
:10061000B09333018091340190913501A09136015E
:10062000B09137010196A11DB11D809334019093C3
:100630003501A0933601B0933701BF91AF919F91DF
:100640008F913F912F910F900FBE0F901F90189593
:1006500026E8230F0296A11DB11DD2CF1F920F9243
:100660000FB60F9211242F933F934F935F936F9385
:100670007F938F939F93AF93BF93CF93DF93EF932A
:10068000FF9380912E01C091F901D0E087FF24C033
:10069000109285001092840080912E018F5F8093CC
:1006A0002E0180912E01082E000C990B8C179D07AE
:1006B00024F480912E018C30C4F1809184009091BB
:1006C0008500049680349C4908F47AC080918400A7
:1006D00090918500049676C080912E01082E000C22
:1006E000990B8C179D07C4F6E0912E018E2FEE0F0B
:1006F000990BFC01EE0FFF1FE80FF91FEB52FE4FA5
:10070000808186FFC9CFE0912E018E2FEE0F990BCD
:10071000FC01EE0FFF1FE80FF91FEB52FE4F808127
:1007200060E08F730E949901B7CF209184003091CF
:100730008500E0912E018E2FEE0F990BFC01EE0F3C
:10074000FF1FE80FF91FEB52FE4F81819281820F4C
:10075000931F9093890080938800E0912E018E2F43
:10076000EE0F990BFC01EE0FFF1FE80FF91FEB5284
:10077000FE4F808186FF11C0E0912E018E2FEE0F7B
:10078000990BFC01EE0FFF1FE80FF91FEB52FE4F14
:10079000808161E08F730E949901FF91EF91DF9159
:1007A000CF91BF91AF919F918F917F916F915F9109
:1007B0004F913F912F910F900FBE0F901F90189562
:1007C00080E49CE990938900809388008FEF809368
:1007D0002E01E3CFCF92DF92EF92FF920F931F9300
:1007E000E82FF92F05C0015011092109310961F1E4
:1007F000908196239417B9F305C00150110921097E
:10080000310911F1908196239413F7CFC12CD12C8B
:10081000E12CF12C0AC08FEFC81AD80AE80AF80AAE
:100820000C151D052E053F0579F080818623841760
:1008300091F36C2D7D2D8E2D9F2D1F910F91FF908B
:10084000EF90DF90CF90089560E070E080E090E05E
:100850001F910F91FF90EF90DF90CF90089510922D
:100860003B0110923A0188EE93E0A0E0B0E0809363
:100870003C0190933D01A0933E01B0933F0184E081
:1008800091E0909339018093380185EC90E090934A
:1008900045018093440184EC90E09093470180935C
:1008A000460180EC90E0909349018093480181ECEF
:1008B00090E090934B0180934A0182EC90E09093FA
:1008C0004D0180934C0186EC90E090934F01809312
:1008D0004E01109251011092520110925301109248
:1008E00054018091F9018C3098F491E0980F909325
:1008F000F9018093FA0190E0FC01EE0FFF1FE80F71
:10090000F91FEB52FE4F88EB9BE0928381830895A1
:100910008FEF8093FA010895789484B5826084BD46
:1009200084B5816084BD85B5826085BD85B58160F3
:1009300085BD80916E00816080936E001092810071
:10094000809181008260809381008091810081602C
:1009500080938100809180008160809380008091ED
:10096000B10084608093B1008091B0008160809379
:10097000B00080917A00846080937A0080917A0040
:10098000826080937A0080917A00816080937A00FF
:1009900080917A00806880937A001092C1008091E3
:1009A000FA018C3008F051C061E089E00E94E50155
:1009B0008091FA01282F30E0F901EE0FFF1FE20FBE
:1009C000F31FEB52FE4F9081907C996090831092C0
:1009D000FB011092FC012CE0622F0E947109829FA2
:1009E000B001112430E020E0AB01420F531FFA01A7
:1009F000EE0FFF1FE40FF51FEB52FE4F908196FDA7
:100A000016C02F5F3F4F2C30310571F781110FC099
:100A10001092800082E080938100109285001092F5
:100A20008400B19A80916F00826080936F00E091A2
:100A3000FA018E2F90E0FC01EE0FFF1FE80FF91F67
:100A4000EB52FE4F808180648083E0914801F091F9
:100A5000490182E08083E0914401F09145011082D8
:100A6000E0914601F091470180E1808310925001AE
:100A7000E0914C01F0914D0186E08083E0914A01C4
:100A8000F0914B01808180618083E0914A01F09177
:100A90004B01808188608083E0914A01F0914B0195
:100AA000808180688083E0914A01F0914B018081D0
:100AB0008F7D808361E083E00E94E50160E082E059
:100AC0000E94E501B8E52B2EB2E03B2EC8E8D0E04D
:100AD00060E083E00E94990183E090E00197F1F7E4
:100AE00061E083E00E94990183E290E00197F1F7D1
:100AF00060E083E00E949901E0EBF0E06491ECE9B2
:100B0000F0E08491E82FF0E0EE0FFF1FE057FF4F79
:100B10008591949100E315E720E030E0462F0E9494
:100B2000EA03611571058105910551F06F5F7F4FF3
:100B30008F4F9F4F9F706115710581059105C9F514
:100B400082E191E00E943B028AE191E00E943B0237
:100B50000E9416024B015C0184E6C82ED12CE12CC8
:100B6000F12C0E941602681979098A099B09683ECE
:100B7000734081059105A8F321E0C21AD108E1086C
:100B8000F10888EE880E83E0981EA11CB11CC114E8
:100B9000D104E104F10429F780E090E0892B09F405
:100BA00097CF0E94F600882309F492CF0E9400009C
:100BB0008FCF0E94480820E030E048E652E40E94CF
:100BC000A7076B017C01AC019B010E946C09882383
:100BD00009F46CC08DE191E00E943B0289E291E052
:100BE0000E943B028AE191E00E943B0220E030E05B
:100BF00040EF51E4C701B6010E94A207AAE5B0E0A8
:100C000087FF02C0B0E0A0E01091FA011C3008F0AC
:100C10009FCF8091FC016101C81AD10887FDD39450
:100C2000CC0CDD1CCC0CDD1C8091FB017E01E81A94
:100C3000F10887FDF394EE0CFF1CEE0CFF1C47013E
:100C40000F2C000CAA08BB0896010D2C000C440BBD
:100C5000550B281939094A095B090E94FC0624EB47
:100C600030E040E050E00E94D206820E931EA41EA7
:100C7000B51E8E149F042CF076018C149D040CF488
:100C80007401F2E0EF1AF108EE0CFF1C4FB7F89474
:100C9000212F30E0C901880F991F820F931FFC019B
:100CA000EB52FE4FF282E1824FBF52CF2FEF3FEF68
:100CB0004FE75FE7C701B6010E946C0981110DC0C3
:100CC0002FEF3FEF4FE75FE7C701B6010E94A20792
:100CD00018161CF481E291E07FCF2FEF3FEF4FE732
:100CE0005FE4C701B6010E94FA0818161CF485E2F9
:100CF00091E072CF2FEF3FEF4FE75FECC701B601F6
:100D00000E94A20787FDF3CF2AE037ED43EA5BE3B9
:100D1000C701B6010E9436072B013C010E94190849
:100D20004B015C010E9448089B01AC01C301B20168
:100D30000E9435072B013C014AE0C501B4010E9425
:100D400048026EE288E391E00E942C0120E030E04E
:100D500040E251E4C301B2010E94FF082B013C01B3
:100D60000E9419084B01B12CA12C4AE0C501B40125
:100D70000E944802C501B4010E9448089B01AC01D1
:100D8000C301B2010E94350720E030E040E251E4A7
:100D90000E94FF080E94190890E080E04AE00E944B
:100DA00048021CCF052E97FB1EF400940E94E90612
:100DB00057FD07D00E94040707FC03D04EF40C94A3
:100DC000E90650954095309521953F4F4F4F5F4F25
:100DD000089590958095709561957F4F8F4F9F4FA7
:100DE00008950E942607A59F900DB49F900DA49F83
:100DF000800D911D11240895B7FF0C94F1060E94F7
:100E0000F106821B930B0895A1E21A2EAA1BBB1BAD
:100E1000FD010DC0AA1FBB1FEE1FFF1FA217B307C6
:100E2000E407F50720F0A21BB30BE40BF50B661FDC
:100E3000771F881F991F1A9469F7609570958095A0
:100E400090959B01AC01BD01CF010895A29FB00117
:100E5000B39FC001A39F700D811D1124911DB29FEE
:100E6000700D811D1124911D08955058BB27AA278C
:100E70000E944D070C94C0080E94B20838F00E94EE
:100E8000B90820F039F49F3F19F426F40C94AF0808
:100E90000EF4E095E7FB0C94A908E92F0E94D10815
:100EA00058F3BA17620773078407950720F079F49F
:100EB000A6F50C94F3080EF4E0950B2EBA2FA02D96
:100EC0000B01B90190010C01CA01A0011124FF27F7
:100ED000591B99F0593F50F4503E68F11A16F040F2
:100EE000A22F232F342F4427585FF3CF46953795F1
:100EF0002795A795F0405395C9F77EF41F16BA0BB6
:100F0000620B730B840BBAF09150A1F0FF0FBB1F63
:100F1000661F771F881FC2F70EC0BA0F621F731FAC
:100F2000841F48F4879577956795B795F7959E3F09
:100F300008F0B0CF9395880F08F09927EE0F97959A
:100F4000879508950E94850808F481E008950E941D
:100F5000BB070C94C0080E94B90858F00E94B20860
:100F600040F029F45F3F29F00C94A90851110C942A
:100F7000F4080C94AF080E94D10868F39923B1F3E8
:100F8000552391F3951B550BBB27AA2762177307AF
:100F9000840738F09F5F5F4F220F331F441FAA1F43
:100FA000A9F335D00E2E3AF0E0E832D091505040FF
:100FB000E695001CCAF72BD0FE2F29D0660F771FAD
:100FC000881FBB1F261737074807AB07B0E809F093
:100FD000BB0B802DBF01FF2793585F4F3AF09E3F18
:100FE000510578F00C94A9080C94F4085F3FE4F3E1
:100FF000983ED4F3869577956795B795F7959F5F5B
:10100000C9F7880F911D9695879597F90895E1E0A6
:10101000660F771F881FBB1F621773078407BA0705
:1010200020F0621B730B840BBA0BEE1F88F7E09560
:1010300008950E94D90888F09F5798F0B92F9927F2
:10104000B751B0F0E1F0660F771F881F991F1AF0B3
:10105000BA95C9F714C0B13091F00E94F308B1E01D
:1010600008950C94F308672F782F8827B85F39F01C
:10107000B93FCCF3869577956795B395D9F73EF44C
:1010800090958095709561957F4F8F4F9F4F0895F4
:10109000E89409C097FB3EF4909580957095619512
:1010A0007F4F8F4F9F4F9923A9F0F92F96E9BB27C8
:1010B0009395F695879577956795B795F111F8CF44
:1010C000FAF4BB0F11F460FF1BC06F5F7F4F8F4FAF
:1010D0009F4F16C0882311F096E911C0772321F0A5
:1010E0009EE8872F762F05C0662371F096E8862F3D
:1010F00070E060E02AF09A95660F771F881FDAF794
:10110000880F9695879597F90895990F0008550FC0
:10111000AA0BE0E8FEEF16161706E807F907C0F07D
:1011200012161306E407F50798F0621B730B840B85
:10113000950B39F40A2661F0232B242B252B21F45F
:1011400008950A2609F4A140A6958FEF811D811DFF
:10115000089597F99F6780E870E060E008959FEF39
:1011600080EC089500240A9416161706180609063E
:10117000089500240A94121613061406050608950D
:10118000092E0394000C11F4882352F0BB0F40F495
:10119000BF2B11F460FF04C06F5F7F4F8F4F9F4FD5
:1011A000089557FD9058440F551F59F05F3F71F057
:1011B0004795880F97FB991F61F09F3F79F08795BE
:1011C0000895121613061406551FF2CF4695F1DF47
:1011D00008C0161617061806991FF1CF86957105D7
:1011E000610508940895E894BB2766277727CB010B
:1011F00097F908950E94850808F48FEF08950E94DA
:1012000012090C94C0080E94B20838F00E94B90874
:1012100020F0952311F00C94A9080C94AF08112428
:101220000C94F4080E94D10870F3959FC1F3950FB8
:1012300050E0551F629FF001729FBB27F00DB11D5A
:10124000639FAA27F00DB11DAA1F649F6627B00DEA
:10125000A11D661F829F2227B00DA11D621F739FD3
:10126000B00DA11D621F839FA00D611D221F749FE1
:101270003327A00D611D231F849F600D211D822F28
:10128000762F6A2F11249F5750409AF0F1F088234F
:101290004AF0EE0FFF1FBB1F661F771F881F91507C
:1012A0005040A9F79E3F510580F00C94A9080C947A
:1012B000F4085F3FE4F3983ED4F3869577956795FD
:1012C000B795F795E7959F5FC1F7FE2B880F911DA6
:1012D0009695879597F908950E948508880B990B34
:1012E0000895991B79E004C0991F961708F0961B82
:1012F000881F7A95C9F780950895EE0FFF1F059016
:0A130000F491E02D0994F894FFCF5A
:10130A00000000002C018C00B9007901EA00C80035
:10131A00DC004E6F206563686F000D0A006E616E17
:0E132A0000696E66006F76660020636D00003D
:00000001FF
