:100000000C9462000C948A000C948A000C948A0070
:100010000C948A000C948A000C948A000C948A0038
:100020000C948A000C948A000C948A000C948A0028
:100030000C948A000C948A000C948A000C948A0018
:100040000C940D030C948A000C94DB020C94B50202
:100050000C948A000C948A000C948A000C948A00F8
:100060000C948A000C948A000000000024002700F1
:100070002A000000000023002600290000000000E4
:10008000250028002B0004040404040404040202D4
:100090000202020203030303030301020408102007
:1000A0004080010204081020010204081020000012
:1000B0000008000201000003040700000000000027
:1000C0000000D40411241FBECFEFD8E0DEBFCDBFA7
:1000D00011E0A0E0B1E0E6E5FAE002C005900D9283
:1000E000AE31B107D9F721E0AEE1B1E001C01D9218
:1000F000A43CB207E1F710E0C2E6D0E004C02197CB
:10010000FE010E942305C136D107C9F70E9457039B
:100110000C9429050C940000AF92BF92CF92DF920D
:10012000EF92FF920F931F93CF93DF936C017B01AC
:100130008B01040F151FEB015E01AE18BF08C0173D
:10014000D10759F06991D601ED91FC910190F081B0
:10015000E02DC6010995892B79F7C501DF91CF9173
:100160001F910F91FF90EF90DF90CF90BF90AF90D5
:100170000895FC01538D448D252F30E0842F90E0AD
:10018000821B930B541710F0CF9608950197089592
:10019000FC01918D828D981761F0A28DAE0FBF2F5B
:1001A000B11D5D968C91928D9F5F9F73928F90E0B1
:1001B00008958FEF9FEF0895FC01918D828D981720
:1001C00031F0828DE80FF11D858D90E008958FEF5D
:1001D0009FEF0895FC01918D228D892F90E0805C26
:1001E0009F4F821B91098F739927089587E291E0B1
:1001F0000E94EA0021E0892B09F420E0822F089573
:1002000080E090E0892B29F00E94F60081110C9487
:1002100000000895FC01A48DA80FB92FB11DA35AA9
:10022000BF4F2C91848D90E001968F739927848F16
:10023000A689B7892C93A089B1898C918370806439
:100240008C93938D848D981306C00288F389E02DDA
:1002500080818F7D80830895EF92FF920F931F938B
:10026000CF93DF93EC0181E0888F9B8D8C8D981369
:100270001AC0E889F989808185FF15C09FB7F89475
:10028000EE89FF896083E889F989808183708064C1
:1002900080839FBF81E090E0DF91CF911F910F910C
:1002A000FF90EF900895F62E0B8D10E00F5F1F4F1B
:1002B0000F731127E02E8C8D8E110CC00FB607FC2A
:1002C000FACFE889F989808185FFF5CFCE010E94B8
:1002D0000A01F1CFEB8DEC0FFD2FF11DE35AFF4F1B
:1002E000F0829FB7F8940B8FEA89FB898081806246
:1002F000CFCFCF93DF93EC01888D8823B9F0AA8903
:10030000BB89E889F9898C9185FD03C0808186FDD0
:100310000DC00FB607FCF7CF8C9185FFF2CF80811F
:1003200085FFEDCFCE010E940A01E9CFDF91CF9189
:100330000895833081F028F4813099F08230A9F05B
:1003400008958730A9F08830C9F08430B1F48091E5
:1003500080008F7D03C0809180008F778093800024
:10036000089584B58F7784BD089584B58F7DFBCFC4
:100370008091B0008F778093B00008958091B00095
:100380008F7DF9CF1F93CF93DF93E7EBF0E094914C
:10039000E3EAF0E0D491EFE8F0E0C491CC23B9F0C7
:1003A000182F992319F0892F0E949901EC2FF0E062
:1003B000EE0FFF1FE458FF4FA591B4918FB7F8944B
:1003C000EC91111108C0D095DE23DC938FBFDF9133
:1003D000CF911F910895DE2BF8CFCF93DF9390E05C
:1003E000FC01E656FF4F24918A579F4FFC018491F0
:1003F0008823D1F090E0880F991FFC01E859FF4F46
:10040000A591B491FC01E458FF4FC591D49162309D
:1004100071F49FB7F8943C91822F809583238C933D
:10042000E8812E2B28839FBFDF91CF9108958FB74E
:10043000F894EC912E2B2C938FBFF6CF3FB7F89406
:100440008091230190912401A0912501B091260172
:1004500026B5A89B05C02F3F19F00196A11DB11D1F
:100460003FBFBA2FA92F982F8827BC01CD01620F5B
:10047000711D811D911D42E0660F771F881F991F16
:100480004A95D1F70895FC0101900020E9F73197D2
:10049000AF01481B590BBC0187E291E00C948C0022
:1004A0008F929F92AF92BF920F931F93CF93DF9340
:1004B000CDB7DEB7A1970FB6F894DEBF0FBECDBFA4
:1004C00019A2423008F44AE08E010F5D1F4F842EBE
:1004D000912CB12CA12CA50194010E940105E62FBD
:1004E000B901CA01EA30F4F4E05DD801EE938D0160
:1004F000232B242B252B79F790E080E0109719F01F
:10050000CD010E944302A1960FB6F894DEBF0FBE44
:10051000CDBFDF91CF911F910F91BF90AF909F9072
:100520008F900895E95CE1CFCF92DF92EF92FF9236
:10053000CF93DF936B017C016DE287E291E00E9433
:100540002C01EC0166277727CB016C197D098E09F8
:100550009F094AE00E9450028C0F9D1FDF91CF91AE
:10056000FF90EF90DF90CF9008951F920F920FB6FB
:100570000F9211242F933F934F935F936F937F9329
:100580008F939F93AF93BF93EF93FF9387E291E095
:100590000E940A01FF91EF91BF91AF919F918F91BE
:1005A0007F916F915F914F913F912F910F900FBE6F
:1005B0000F901F9018951F920F920FB60F92112453
:1005C0002F938F939F93EF93FF93E0913701F091D7
:1005D00038018081E0913D01F0913E0182FD1BC018
:1005E0009081809140018F5F8F732091410182172C
:1005F00041F0E0914001F0E0E95DFE4F958F80937E
:100600004001FF91EF919F918F912F910F900FBE1D
:100610000F901F9018958081F4CF1F920F920FB604
:100620000F9211242F933F938F939F93AF93BF9378
:1006300080911F0190912001A0912101B091220190
:1006400030911E0123E0230F2D3758F50196A11D8F
:10065000B11D20931E0180931F0190932001A09350
:100660002101B09322018091230190912401A09156
:100670002501B09126010196A11DB11D8093230192
:1006800090932401A0932501B0932601BF91AF91CF
:100690009F918F913F912F910F900FBE0F901F90C0
:1006A000189526E8230F0296A11DB11DD2CF78948C
:1006B00084B5826084BD84B5816084BD85B5826067
:1006C00085BD85B5816085BD80916E008160809318
:1006D0006E00109281008091810082608093810081
:1006E0008091810081608093810080918000816091
:1006F000809380008091B10084608093B1008091EC
:10070000B00081608093B00080917A008460809313
:100710007A0080917A00826080937A0080917A00DA
:10072000816080937A0080917A00806880937A005B
:100730001092C10061E089E00E94ED0162E082E078
:100740000E94ED01E0913701F091380182E0808351
:10075000E0913301F09134011082E0913501F09184
:10076000360180E1808310923F01E0913B01F091DE
:100770003C0186E08083E0913901F0913A0180816B
:1007800080618083E0913901F0913A018081886035
:100790008083E0913901F0913A0180818068808303
:1007A000E0913901F0913A0180818F7D808340EBA7
:1007B000242E40E0342E5CE9852E50E0952EC8E8CA
:1007C000D0E067EBA62E60E0B62E00E010E020E45B
:1007D00020937C0080917A00806480937A008091DD
:1007E0007A0086FDFCCFC0907800D0907900F101AE
:1007F0008491F401F490FE01E490E1106EC077243E
:100800007394EE24EA94F12C61E089E00E94ED01FA
:10081000E114F10409F07CC080E00E94C201B6013D
:10082000DD0C880B990B97FFBBC00E94940282E1FC
:1008300091E00E944302672D70E090E080E04AE082
:100840000E94500284E191E00E94430287E291E01D
:100850000E94EA00892B89F087E191E00E9443021F
:1008600087E291E00E94C800682F87E291E00E9431
:100870002C0184E191E00E9443020E941E022B01A0
:100880003C0184E1C82ED12CE12CF12C0E941E02E7
:100890006419750986099709683E734081059105B9
:1008A000A8F321E0C21AD108E108F10888EE480E49
:1008B00083E0581E611C711CC114D104E104F104D1
:1008C00029F70115110509F482CF0E94F60088234B
:1008D00009F47DCF0E9400007ACF81110E94990116
:1008E000EE2DF0E0EE0FFF1FEE58FF4FA591B491F3
:1008F0008C91F82209F483CF7601D7FE03C0F3E090
:10090000EF0EF11CF594E794F594E794712C7CCFED
:100910002FEFE216F10411F481E07FCFF50184910D
:10092000833021F148F48130B9F08230D1F0F0E821
:10093000EF16F1048CF770CF873011F1883041F158
:100940008430A9F780918000806280938000F092CB
:100950008B00E0928A0063CF84B5806884BDE7BCD9
:100960005ECF84B5806284BDE8BC59CF80918000A1
:10097000806880938000F0928900E09288004FCFD9
:100980008091B00080688093B000E092B30047CFC0
:100990008091B00080628093B000E092B4003FCFBD
:1009A0004AE00E94500243CFE7E2F1E01382128254
:1009B00088EE93E0A0E0B0E084839583A683B783BC
:1009C00084E091E09183808385EC90E09587848733
:1009D00084EC90E09787868780EC90E0918B808B09
:1009E00081EC90E0938B828B82EC90E0958B848BF2
:1009F00086EC90E0978B868B118E128E138E148E60
:100A00000895A1E21A2EAA1BBB1BFD010DC0AA1F4F
:100A1000BB1FEE1FFF1FA217B307E407F50720F067
:100A2000A21BB30BE40BF50B661F771F881F991FE2
:100A30001A9469F760957095809590959B01AC012B
:100A4000BD01CF010895EE0FFF1F0590F491E02D39
:060A50000994F894FFCFA9
:100A5600000000002C018C00B9007901EA00C800F2
:0E0A6600DC002C000D0A006563686F3A00008A
:00000001FF
