:100000000C9458000C9480000C9480000C94800098
:100010000C9480000C9480000C9480000C94800060
:100020000C9480000C9480000C9480000C94800050
:100030000C9480000C9480000C9480000C94800040
:100040000C945D030C9480000C9480000C94800050
:100050000C9480000C9480000C9480000C94800020
:100060000C94A7030C9480000000000025002800D9
:100070002B00040404040404040402020202020229
:10008000030303030303010204081020408001025C
:1000900004081020010204081020000000080002DB
:1000A0000100000304070000000000000000A80594
:1000B00011241FBECFEFD8E0DEBFCDBF11E0A0E01E
:1000C000B1E0EAE2FCE002C005900D92AA32B1076D
:1000D000D9F721E0AAE2B1E001C01D92A93FB20721
:1000E000E1F710E0C8E5D0E004C02197FE010E94CE
:1000F0000D06C735D107C9F70E94C6040C94130634
:100100000C9400000895089590E0FC01E656FF4F1E
:100110002491FC01EA57FF4F3491FC01EE58FF4F48
:10012000E491EE23C9F0222339F0233001F1A8F441
:10013000213019F1223029F1F0E0EE0FFF1FE859CC
:10014000FF4FA591B4918FB7F894EC91611126C03F
:1001500030953E233C938FBF08952730A9F0283077
:10016000C9F0243049F7809180008F7D03C08091D1
:1001700080008F7780938000DFCF84B58F7784BD38
:10018000DBCF84B58F7DFBCF8091B0008F778093DC
:10019000B000D2CF8091B0008F7DF9CF3E2BDACF67
:1001A0003FB7F8948091DD019091DE01A091DF01CD
:1001B000B091E00126B5A89B05C02F3F19F001962C
:1001C000A11DB11D3FBFBA2FA92F982F8827BC01B1
:1001D000CD01620F711D811D911D42E0660F771FD9
:1001E000881F991F4A95D1F708958F929F92AF92D9
:1001F000BF92CF92DF92EF92FF924B015C010E947F
:10020000D0006B017C010E94D0006C197D098E0921
:100210009F09683E734081059105A8F321E0821A89
:100220009108A108B10888EEC80E83E0D81EE11C31
:10023000F11C81149104A104B10429F7FF90EF90FF
:10024000DF90CF90BF90AF909F908F9008952091B6
:100250009201260F3327331F21323105ECF4209110
:10026000B601FC0190E080E0243069F082E008955E
:10027000A09192012191AC014E585E4FA40FB52F71
:10028000B11D2C930196861798F380919201680F07
:100290006093920180E0089581E008951092B60184
:1002A00081E08093B8011092B70161E082E10E9481
:1002B000840061E083E10E948400E9EBF0E080814A
:1002C0008E7F808380818D7F808388E48093B800D7
:1002D00085E48093BC000895CF93DF9391E09093E1
:1002E00071018823B9F0C091B800D091BA00809113
:1002F000BC008A7B8093BC0060E082E10E948400A5
:1003000060E083E10E9484000E944E01D093BA0015
:10031000C093B800DF91CF9108950895E091E8016E
:100320008091E701E81730F4F0E0E45BFE4F808154
:1003300090E008958FEF9FEF08959091E8018091EC
:10034000E7012FEF3FEF981748F4E92FF0E0E45B67
:10035000FE4F208130E09F5F9093E801C90108952E
:100360008091E7019091E801891B990B0895CF9244
:10037000DF92EF92FF920F931F93CF93DF937C0155
:10038000CB018A0120914B01222389F0EB016B0103
:10039000C40ED51ECC15DD0569F06991D701ED912C
:1003A000FC910190F081E02DC7010995F3CF642FF6
:1003B0000E942701C801DF91CF911F910F91FF90FB
:1003C000EF90DF90CF900895CF93DF931F92CDB73A
:1003D000DEB7698320914B012223F9F02091E501DA
:1003E000203258F021E030E0FC013383228390E09A
:1003F00080E00F90DF91CF9108958091E601E82F82
:10040000F0E0E55DFE4F998190838F5F8093E60178
:100410008093E50181E090E0ECCF61E0CE010196B0
:100420000E942701F7CF90E080E00895CF92DF92FD
:10043000EF92FF920F931F93CF9391E090934B0114
:1004400097E290932A011092E6011092E501682F3D
:10045000686089EE91E00E94E401C091E501C1323B
:1004600008F091C00E94D0006B017C018091B60120
:10047000811164C082E08093B60181E08093B8016D
:100480008FEF8093B5011092DA01C093D901ABE2EE
:10049000B1E0E9EBF1E080E0C81383C01092DB012A
:1004A0008091DB018E648093DB018091B701813004
:1004B00009F07BC01092B7010E94D0006B017C0153
:1004C0008091DB018093BB0080916D0190916E0162
:1004D000A0916F01B0917001892B8A2B8B2B99F021
:1004E0000E94D00000916D0110916E0120916F016A
:1004F000309170016C197D098E099F090617170745
:1005000028073907E0F18091BC0083FDD9CF85EC45
:100510008093BC000E94D0006B017C018091B601E9
:10052000823009F444C08091B5018F3F61F1809120
:10053000B501803241F18091B50125C080916D01F6
:1005400090916E01A0916F01B0917001892B8A2B5F
:100550008B2B09F48BCF0E94D00000916D0110917C
:100560006E0120916F01309170016C197D098E0927
:100570009F09061717072807390708F077CF8091DA
:100580006C010E946C011092E6011092E50110923C
:100590004B01CF911F910F91FF90EF90DF90CF9083
:1005A00008959D9191938F5F77CF85EEB1CF809124
:1005B0006D0190916E01A0916F01B0917001892B36
:1005C0008A2B8B2B09F4AACF0E94D00000916D01D9
:1005D00010916E0120916F01309170016C197D09AD
:1005E0008E099F09061717072807390708F096CFC5
:1005F000C6CFCF93C82F84600E94160283E090E09C
:100600000197F1F78C2F0E94160283EC90E001977E
:10061000F1F7CF9108950F931F93CF938C01F801B9
:10062000C1918F01CC2369F08C2F807F81600E9463
:10063000F902F0E1CF9FC001112481600E94F9020C
:10064000EECFCF911F910F91089585ED8093BC005F
:1006500080916D0190916E01A0916F01B091700138
:100660000796A11DB11D23E0B695A795979587958F
:100670002A95D1F72091BC0024FD03C01092B60149
:10068000089540916D0150916E0160916F017091DC
:100690007001452B462B472B69F30097A105B10547
:1006A00041F02AE22A95F1F700C00197A109B109AA
:1006B000E1CF80916C010C946C011F920F920FB6E8
:1006C0000F9211242F933F938F939F93AF93BF93D8
:1006D0008091F5019091F601A091F701B091F80198
:1006E0003091DC0123E0230F2D3758F50196A11D31
:1006F000B11D2093DC018093F5019093F601A09346
:10070000F701B093F8018091DD019091DE01A09195
:10071000DF01B091E0010196A11DB11D8093DD01C3
:100720009093DE01A093DF01B093E001BF91AF9100
:100730009F918F913F912F910F900FBE0F901F901F
:10074000189526E8230F0296A11DB11DD2CF1F9246
:100750000F920FB60F9211242F933F934F935F93F5
:100760006F937F938F939F93AF93BF93EF93FF9379
:100770008091B900887F803609F44AC0F0F588324C
:1007800009F4A7C018F5803109F49BC0B8F4882398
:1007900009F4F9C0883009F494C0FF91EF91BF913A
:1007A000AF919F918F917F916F915F914F913F9109
:1007B0002F910F900FBE0F901F901895883109F45C
:1007C00088C0803251F78093B50114C0803409F499
:1007D0009DC040F48033B9F38833F9F68093B501B6
:1007E00085ECB0C0803509F485C0883509F496C021
:1007F000883499F60E942503D0CF883909F48CC03B
:1008000038F5883729F050F4883611F0803729F60A
:1008100083E08093B6011092B40157C0883809F480
:100820007BC0803919F0803809F0B7CF8091B401CE
:10083000803208F071C0E091B40181E08E0F8093A6
:10084000B4018091BB00F0E0EC56FE4F80833DC0C8
:10085000803B39F0E0F4803A09F479C0883A09F035
:100860009CCF84E08093B601109293011092920184
:10087000E091E301F091E4010995809192018111E9
:100880000FC081E0809392011092720109C0803CF8
:1008900009F4A6CF883C09F4A3CF883B09F07DCFAB
:1008A000E091930181E08E0F80939301F0E0EE5888
:1008B000FE4F80818093BB009091930180919201C3
:1008C00029C08091DB018093BB0085EC8093BC0044
:1008D00064CF9091DA018091D901981758F5E09191
:1008E000DA0181E08E0F8093DA01F0E0E754FE4FE9
:1008F0008081E9CFE091DA0181E08E0F8093DA0107
:100900008091BB00F0E0E754FE4F80839091DA01C4
:100910008091D9019817C8F285E8D8CFE091DA0123
:1009200081E08E0F8093DA018091BB00F0E0E75404
:10093000FE4F80838091B80181115CCF81E080936C
:10094000B70184EA8093BC001092B60126CF85ECF3
:100950008093BC001092B6018091B401803230F4D3
:10096000E091B401F0E0EC56FE4F10826091B401CA
:1009700070E0E091E101F091E20184E991E00995F4
:100980001092B4010ACF1092B50134CFCF93DF9308
:10099000CDB7DEB72C970FB6F894DEBF0FBECDBF34
:1009A000789484B5826084BD84B5816084BD85B54A
:1009B000826085BD85B5816085BD80916E00816056
:1009C00080936E00109281008091810082608093FC
:1009D00081008091810081608093810080918000FE
:1009E0008160809380008091B10084608093B10029
:1009F0008091B00081608093B00080917A00846023
:100A000080937A0080917A00826080937A0080914E
:100A10007A00816080937A0080917A008068809368
:100A20007A001092C1001092E8011092E701109232
:100A3000E6011092E5010E944E0182E890E0909359
:100A4000E4018093E30183E890E09093E2018093D6
:100A5000E10162E370E080E090E00E94F50080E355
:100A60000E94F90265E070E080E090E00E94F500ED
:100A700080E30E94F90265E070E080E090E00E946F
:100A8000F50080E30E94F90280E20E94F90280E210
:100A90000E94F90280E80E94F90280E00E94F902B7
:100AA00080EC0E94F90280E00E94F90280E60E9438
:100AB000F90280E00E94F90280E10E94F90262E0FE
:100AC00070E080E090E00E94F50080E80E94F9026A
:100AD00080E00E94F90282E191E00E940B0388EE1F
:100AE000C82E83E0D82EE12CF12C00E010E080EC41
:100AF0000E94F90280E00E94F90280E291E00E94E7
:100B00000B032FB7F8946091F5017091F601809175
:100B1000F7019091F8012FBFA70196010E94EB0504
:100B2000CA01B9012AE0AE014F5F5F4F0E94B905CB
:100B3000CE0101960E940B0364E670E080E090E035
:100B40000E94F5000115110591F20E940000CFCF1F
:100B5000E9EEF1E01382128288EE93E0A0E0B0E0CB
:100B600084839583A683B78384E091E09183808317
:100B70000895BB27FA01A62F62177105810591051B
:100B8000330B30FB66F0AA27660F771F881F991F6B
:100B9000AA1FA21710F0A21B63953850A9F7A05DF9
:100BA000AA3308F0A95DA19336F7B111B193108271
:100BB000CA010C94DB05DC01FC01672F71917723DE
:100BC000E1F7329704C07C916D9370836291AE1708
:100BD000BF07C8F30895A1E21A2EAA1BBB1BFD0193
:100BE0000DC0AA1FBB1FEE1FFF1FA217B307E4070C
:100BF000F50720F0A21BB30BE40BF50B661F771F64
:100C0000881F991F1A9469F7609570958095909543
:100C10009B01AC01BD01CF010895EE0FFF1F0590B0
:0A0C2000F491E02D0994F894FFCF41
:100C2A0000000000E401B70113028D01B0019D012B
:100C3A008E014349524355495420464F5247450075
:0A0C4A005365636F6E64733A200077
:00000001FF
